:020000040800F2
:1000000000180020251E000885030008870300084B
:1000100000000000000000000000000000000000E0
:10002000000000000000000000000000890300083C
:1000300000000000000000008B0300088D03000892
:10004000A51E0008A51E0008A51E0008A51E000884
:10005000A51E0008A51E0008A51E0008A51E000874
:10006000A51E0008A51E0008A51E0008A51E000864
:10007000A51E0008A51E0008A51E0008A51E000854
:10008000A51E00080000000000000000A51E0008DA
:1000900000000000A51E0008A51E0008A51E0008FF
:1000A00000000000A51E0008A51E0008A51E0008EF
:1000B000A51E000800000000A51E0008A51E0008DF
:1000C00003B47146490840004900095E49008E4466
:1000D00003BC7047002243088B4274D303098B4250
:1000E0005FD3030A8B4244D3030B8B4228D3030C08
:1000F0008B420DD3FF22090212BA030C8B4202D3AA
:100100001212090265D0030B8B4219D300E0090AD1
:10011000C30B8B4201D3CB03C01A5241830B8B42DA
:1001200001D38B03C01A5241430B8B4201D34B03C3
:10013000C01A5241030B8B4201D30B03C01A524128
:10014000C30A8B4201D3CB02C01A5241830A8B42AD
:1001500001D38B02C01A5241430A8B4201D34B0296
:10016000C01A5241030A8B4201D30B02C01A5241FA
:10017000CDD2C3098B4201D3CB01C01A52418309AE
:100180008B4201D38B01C01A524143098B4201D3E8
:100190004B01C01A524103098B4201D30B01C01A13
:1001A0005241C3088B4201D3CB00C01A524183088D
:1001B0008B4201D38B00C01A524143088B4201D3BA
:1001C0004B00C01A5241411A00D20146524110461A
:1001D0007047FFE701B5002000F006F802BDC046F9
:1001E0000029F7D076E770477047C0460448054BB2
:1001F00010B5834203D0044B002B00D0984710BDAC
:100200005C0000205C000020000000000648074958
:10021000091A8B10C90FC91810B5491003D0044B27
:10022000002B00D0984710BD5C0000205C0000202F
:100230000000000010B5074C2378002B09D1FFF710
:10024000D5FF054B002B02D0044800E000BF01237E
:10025000237010BD5C00002000000000042800088E
:10026000054B10B5002B03D00449054800E000BF42
:10027000FFF7CCFF10BDC04600000000600000206A
:100280000428000872B6FEE710B592B005AC34221F
:100290000021200001F03CFE1022002101A801F005
:1002A00037FE02230593013B08930F330993200087
:1002B00000F070F800280DD101A807230193002356
:1002C00043608360C360002100F042FB002803D13B
:1002D00012B010BDFFF7D6FFFFF7D4FF70B584B0A2
:1002E000FFF7D2FF00F09CFC00F0B6FC00F07AFDB6
:1002F00000F0B8FD0400204901F01EFA1F4E310045
:10030000200001F027FA02B2C30B9B185B109BB2CE
:100310004025ED1AADB2200000F0E9FD33002622A1
:100320002900200001F0CAF9200000F0ECFD00F0E7
:100330006BFD00F089FC200000F0D9FD00F064FDA9
:1003400003000F4A1021684601F0AEFD6946200007
:1003500001F000FA02B2C30B9B185B109BB2402164
:10036000C91A89B26B462622200001F0A7F92000A5
:1003700000F0C9FDDBE7C046742800081C2800080F
:100380002C280008FEE7FEE77047704710B500F024
:10039000A9FB10BD70B582B0041E00D17FE20368D6
:1003A000DB072BD5B34B5A680C231340042B1DD00D
:1003B000B04B5A680C231340082B0ED06368012BF6
:1003C00041D0002B56D1AB4B1A68AB490A401A609A
:1003D0001A68AA490A401A603BE0A64B5B68C02233
:1003E00052021340802252029342E7D1A14B1B6874
:1003F0009B0303D56368002B00D153E223689B075E
:1004000077D59C4B5B680C221A4262D0994B5A6894
:100410000C231340082B53D0E368002B00D18AE053
:10042000944A136801210B43136000F067FB050039
:10043000904B1B689B0775D400F060FB401B0228A3
:10044000F6D903202CE28B4A116880235B020B4310
:1004500013606368002B25D000F050FB0500854B2E
:100460001B689B03CAD400F049FB401B6428F6D9E3
:10047000032015E2052B09D07E4B1A687E490A40FD
:100480001A601A687D490A401A60E2E7794B1968D8
:100490008022D2020A431A601968802252020A435B
:1004A0001A60D6E700F02AFB0500724B1B689B031D
:1004B000A4D500F023FB401B6428F6D90320EFE10C
:1004C0006C4B5B68C022520213408022120293429E
:1004D000A2D1684B1B689B0703D5E368012B00D0B2
:1004E000E2E164490B68F82293432269D200134386
:1004F0000B6023681B0744D5E369002B2ED05D4AAF
:10050000536A01210B43536200F0F8FA0500594B7E
:100510005B6A9B0735D400F0F1FA401B0228F6D93C
:100520000320BDE153490B68F82293432269D200AE
:1005300013430B60DDE74F4A136801218B431360BF
:1005400000F0DCFA05004B4B1B689B07D1D500F08F
:10055000D5FA401B0228F6D90320A1E1454A536A87
:1005600001218B43536200F0C9FA0500414B5B6ADD
:100570009B0706D500F0C2FA401B0228F6D90320DB
:100580008EE123685B0700D480E03A4BDB69DB0037
:100590001DD4384BDA69802149050A43DA61DB69E9
:1005A0000B400193019B0125354B1B68DB0510D5E2
:1005B000A368012B21D0002B36D12E4B1A6A0121C2
:1005C0008A431A621A6A03318A431A621AE00025C2
:1005D000EAE72B4A116880235B000B43136000F0AD
:1005E0008DFA0600264B1B68DB05E1D400F086FA85
:1005F000801B6428F6D9032052E11E4A136A0121A8
:100600000B431362A368002B24D000F077FA060096
:10061000184B1B6A9B0737D400F070FA801B194BEC
:100620009842F5D903203BE1052B09D0114B1A6AFA
:1006300001218A431A621A6A03318A431A62E1E786
:100640000C4B1A6A04210A431A621A6A03390A43D4
:100650001A62D7E700F052FA0600064B1B6A9B07A6
:1006600012D500F04BFA801B064B9842F5D90320B7
:1006700016E1C04600100240FFFFFEFFFFFFFBFF38
:100680000070004088130000012D39D02368DB067C
:1006900010D56369012B39D0053357D1894A536B83
:1006A00004218B435363536BF4318B43A169C9001D
:1006B0000B43536323689B066ED5824B5A680C2309
:1006C00013400C2B60D07F4B5A680C231340082B2F
:1006D00053D0236A002B7ED07A4A516B80235B0271
:1006E0000B43536300F00AFA0500764B5B6B9B03E8
:1006F00052D400F003FA401B0228F6D90320CFE0C1
:10070000704AD36970490B40D361BFE76D4B5A6B98
:1007100004210A435A635A6B03390A435A6300F0AF
:10072000EDF90500674B5B6B9B0706D400F0E6F91B
:10073000401B0228F6D90320B2E062494B6BF82235
:100740009343A269D20013434B63B3E75D4B5A6BEB
:1007500004210A435A635A6B03398A435A6300F0EF
:10076000CDF90500574B5B6B9B07A3D500F0C6F98D
:10077000401B0228F6D9032092E0524B5B68C0224E
:10078000520213409342A4D14E4B5B6B9B0303D5A3
:10079000236A012B00D089E0636A002B00D187E037
:1007A000484A51680C220A40082A60D0022B25D002
:1007B000444A136845490B40136000F09FF9040058
:1007C000404B1B689B0150D500F098F9001B022894
:1007D000F6D9032064E03B4A536B3D490B40536319
:1007E00000F08CF90500374B5B6B9B03D4D500F010
:1007F00085F9401B0228F6D9032051E0314A1368DD
:1008000032490B40136000F079F905002D4B1B684D
:100810009B0106D500F072F9401B0228F6D903208F
:100820003EE0284BDA6A0F218A43216B0A43DA62E1
:100830005A6828490A40E16AA06A01430A435A609B
:100840001968802252040A431A6000F057F9040024
:100850001C4B1B689B0106D400F050F9001B0228BA
:10086000F6D903201CE000201AE0002018E0012B3C
:1008700020D0144B5A68D86AC0235B021340A16A87
:100880008B4219D10F230340216B8B4216D1F023E9
:100890009B031A40E36A9A4212D1002000E0012033
:1008A00002B070BD0120FBE70120F9E70120F7E766
:1008B0000020F5E70120F3E70120F1E70120EFE751
:1008C0000120EDE700100240FFFFFFEFFFFFFFFEFA
:1008D000FFFFFEFFFF7FC2FF10B5184B5A680C23C5
:1008E0001340082B03D00C2B25D1154810BD910CBB
:1008F0000F2319401348445C1049C96A0B40124940
:10090000C95CC0235B021A4080235B029A4208D074
:10091000C0235B029A4209D00C48FFF7DBFB60431F
:10092000E4E70A48FFF7D6FB6043DFE70448FFF738
:10093000D1FB6043DAE70548D8E7C0460010024023
:10094000006CDC02482800083828000800127A00F1
:1009500070B504000D00002800D186E0474B1A68EE
:10096000012313408B420AD244490B68012293436E
:100970002B430B600B681A40AA4200D077E0236833
:100980009A070ED55B0705D53D4A5168E023DB0089
:100990000B4353603A4A5368F0218B43A1680B43E1
:1009A00053602368DB0735D56368012B09D0022B20
:1009B00024D0032B28D0324A1268920705D4012094
:1009C00052E02F4A1268920353D52D494A680320FA
:1009D000824313434B6000F091F80600284B5B689C
:1009E0000C221A4063689B009A4213D000F086F8EC
:1009F000801B244B9842F1D9032035E0204A12682D
:100A00009201E2D401202FE01D4A526B9203DCD404
:100A1000012029E0194B1A6801231340AB4209D980
:100A200016490B68012293432B430B600B681A4055
:100A3000AA4220D123685B0706D5114A53681249A0
:100A40000B40E1680B435360FFF746FF0C4B5A68BD
:100A500012090F2313400D4AD35CD8400C4B186089
:100A6000032000F017F8002070BD0120FCE70120F2
:100A7000FAE70120F8E70120F6E7C046002002402F
:100A80000010024088130000FFF8FFFF58280008FC
:100A90000800002010B504000F4B1978FA208000E0
:100AA000FFF718FB01000D4B1868FFF713FB00F070
:100AB0008DF800280DD1032C01D901200AE0013066
:100AC00000222100404200F07DF8054B1C60002010
:100AD00000E0012010BDC0460000002008000020FA
:100AE00004000020034A1168034B1B785B18136055
:100AF0007047C0467800002000000020014B1868B5
:100B00007047C0467800002070B50400FFF7F6FF7C
:100B10000500631C02D0044B1B78E418FFF7EEFFBE
:100B2000401BA042FAD370BD0000002070B5002821
:100B300011DB8308134DC0339B005C590322104026
:100B4000C000FC3216008640B44389010A4082404E
:100B500022435A5170BD0F230340083B9B080633C4
:100B60009B00094A944663445C6803221040C0001D
:100B7000FC3215008540AC4389010A408240224383
:100B80005A60E7E700E100E000ED00E00138802373
:100B90005B0498420FD2094A50600948036A1B025D
:100BA0001B0AC02109060B4303620023936007332D
:100BB0001360002070470120FCE7C04610E000E011
:100BC00000ED00E010B5FFF7B1FF10BD10B5FFF765
:100BD000DDFF10BD7047000010B503000C4A0D4941
:100BE000521A0D490968002907D00B490868C31833
:100BF000934206D8084A136010BD074907480860A9
:100C0000F3E701F08DF90C23036001204042F3E784
:100C100000180020000400007C0000206006002076
:100C2000074A51698023DB020B435361054B196866
:100C3000C0220A401A601A6840210A431A607047AD
:100C40000010024000040048024A536908214B404A
:100C5000536170470004004830B5224A516980232F
:100C6000DB020B435361204B18688021890101434B
:100C7000196019681D4C214019601868802109020B
:100C80000143196019681A480140196059684025E4
:100C90002943596059684035294359609968214072
:100CA0009960996801409960D9682140D960D968F4
:100CB000104C2140D960D9680140D960D9680E48EC
:100CC0000140D960882149051962D16980239B03BD
:100CD0000B43D361094B0A4A1A611A6801210A437E
:100CE0001A6030BD0010024000040048FFEFFFFF13
:100CF000FFBFFFFFFFDFFFFFFF7FFFFF005400404C
:100D000015113010084B9B691B04FBD4064B302295
:100D1000DA614000054A02435A6059688022920114
:100D20000A435A607047C046005400400000010169
:100D300030B500228A4204D317E00F4B9B69DB06D3
:100D400010D40D4B9B699B0710D40B4B9B691B0662
:100D5000F3D5094D6C68094B1C4080235B0223438B
:100D60006B60EAE7044B1022DA6130BD845C024B11
:100D70009C620132D2B2DDE700540040FFFF00FF69
:100D80000E4B9B691B0606D40C4B9B69DB06F7D503
:100D90000A4B1022DA61094B5A6809490A405A6025
:100DA00059688022D2010A435A60044B9B699B0612
:100DB000FBD5024B2022DA617047C0460054004048
:100DC000FFFF00FE10B5FFF79FFE10BD82B0400090
:100DD000019000E0C046019B5A1E0192002BF9D100
:100DE00002B07047074AD36901210B43D3618023C6
:100DF000DB0507229A6200225A6259611A680A4387
:100E00001A607047001002408023DB05586A704763
:100E100010B5182908D019290DD0172909D11100AA
:100E20001800FFF785FF04E02423C05C4008FFF7AB
:100E300069FF012010BDFFF7A3FFFAE710B52A29CB
:100E400008D02B290CD0292902D11000FFF7BAFFB6
:100E5000012010BD900080184000FFF7B7FFF7E7B2
:100E6000C046F5E710B5084B084A0949094C20006F
:100E700000F0BCFD200000F0BFFC0021200000F0CD
:100E8000C2FC200010BDC0463D0E0008110E000837
:100E9000682800088000002010B582B003681B7C21
:100EA000446B5943C90089B264180094002100F0D2
:100EB0008DFC02B010BDF0B5C64600B50600382363
:100EC000C75C0133C55C03685B7C984600242A003C
:100ED00021003000FFF7E0FF0134E4B20135EDB24C
:100EE000A74201D9A845F2D880BCB846F0BD10B5DC
:100EF00003681A7C3823C35C5A43D200406B00213C
:100F000001F006F810BD10B50400FFF7D4FF200073
:100F100000F080FC10BD70B501683823C35CDA00B6
:100F200082870A7CD20042873922855CEA00C28728
:100F30005E194C7CA64201DD641BA3B2DB009BB2B0
:100F40004024025302340253D21802538A8A4423A3
:100F5000C252CA8A0233C25270BD10B5FFF7DBFF1E
:100F600010BD10B582B004005223C35A5422825AD5
:100F70005021415A5620205A0090200000F06CFD6C
:100F8000002804D18C230022E25402B010BD8C232F
:100F90000122E254443BE25A0833E35A9A4201D216
:100FA0004822A3524A23E25A0833E35A9A4201D90B
:100FB0004A22A3524C23E25A0833E35A9A4201D2FE
:100FC0004C22A3524E23E25A0833E35A9A42DCD908
:100FD0004E22A352D9E710B548230022C252043B47
:100FE000C25A0633C2520A3BC25A0C33C2520A3B9F
:100FF000C25A0C33C252FFF7B4FF10BD10B582B015
:1010000004AC2478009400F05EFD02B010BD10B571
:1010100000235022835204328352013B023A83520E
:1010200004328352036B5B68984710BD70B50400AF
:1010300004980025A565E36261633823E254013317
:10104000E5543433E5542433E554043BE5548C3BF8
:101050009222A3540132A3542063036820009847CE
:101060002000FFF7D4FF200000F060FB7023E55460
:1010700070BD000008230370004870471401002071
:10108000405C70474218435C1B025078C01880B225
:1010900070470020704770B504000D000021280043
:1010A000FFF7EEFF207001212800FFF7E9FF6070D5
:1010B00002212800FFF7E4FFA07003212800FFF7BA
:1010C000DFFFE07004212800FFF7DAFF207105211F
:1010D0002800FFF7D5FF607106212800FFF7D0FF39
:1010E000A07107212800FFF7CBFFE071082128003D
:1010F000FFF7C6FF207209212800FFF7C1FF6072C9
:101100000A212800FFF7BCFFA0720B212800FFF77F
:10111000B7FFE0720C212800FFF7B2FF20730D210A
:101120002800FFF7ADFF60730E212800FFF7A8FF2E
:10113000A0730F212800FFF7A3FFE0731021280000
:10114000FFF79EFF207411212800FFF79BFF6082AC
:1011500013212800FFF796FFA08215212800FFF732
:1011600091FFE08270BD70B50400037B066835789E
:101170001D41E8B25A18D2B2072A0AD90820C01A6B
:10118000C0B2731C2360737883402B43D8B2083AF3
:10119000D2B201235B428B409843227370BD70B57D
:1011A0000500040060340166002323737833C15CBA
:1011B0002000FFF7D8FFA0727923E95C2000FFF739
:1011C000D2FFE0729223EB5CA3735A425341E37364
:1011D00070BD10B50C00FFF7C6FF013CE4B201235F
:1011E000A340C01A40B210BD012B06D0022B07D07D
:1011F000002B08D1801880B27047401880B2FBE7FE
:10120000801A80B2F8E7401A80B2F5E7012B06D0C9
:10121000022B07D0002B08D1401880B27047801AEB
:1012200080B2FBE7401A80B2F8E7801880B2F5E799
:10123000F0B5DE4657464E464546E0B589B00792C2
:10124000030060331A7A90465B7A0393894606005E
:101250001BE04B46059321E033006033997B9223DA
:10126000F15453460093059B0699300000F037FC7B
:10127000A94541D343461C1B4C44E3B29946039B0A
:101280000133DBB2039300239846330060339C7A2A
:101290004346E51AEDB2A945DBD30595330060332B
:1012A0009888DA88049241464FB26A460C2151561A
:1012B0008B461B7C9A460A003900FFF7A7FF069071
:1012C00053465A4639000498FFF78EFF0200079BE9
:1012D000002BC1D1330060335B7B002BC8D13300BE
:1012E0006033D97B9223F15453460093059B0699B2
:1012F000300000F0F4FBBBE7594637004E463200A1
:1013000042443B0060331A72597209B0F0BCBB46CC
:10131000B246A946A046F0BDF0B5DE4657464E4659
:101320004546E0B587B0040005006035FFF737FF9C
:101330006B23E3569A467A23E15C2800FFF749FFC6
:1013400081467B23E15C2800FFF743FF06007C23F6
:10135000E15C2800FFF73DFF03900A23EB56984617
:10136000002B78DD5644F6B2764277B22B7C9B4652
:10137000A8883A004946FFF749FF05900490A880E5
:10138000E8885B463A004946FFF72EFF0200E880F6
:101390005B46022B67D013D8002B21D0012B0DD137
:1013A000059B5146591A89B2013101339BB2464619
:1013B000B6B2801980B289B2049119E0059B17E09A
:1013C000032B0BD1059B53449BB2424692B2821A27
:1013D00092B20132013080B292B209E0059B07E07F
:1013E00043469BB205998C4663449BB2504480B2FD
:1013F00000900499200000F02FFB00282BD0230040
:10140000603300221A725A727623E15C2800FFF7DB
:10141000AAFE07007723E15C2800FFF7A4FE060080
:10142000002239002000FFF703FF012231002000D5
:10143000FFF7FEFE01212800FFF795FE0028EFD1FF
:10144000230060335B7A5BB25345DDDB23006033FE
:101450009A7B9223E254039807B0F0BCBB46B24695
:10146000A946A046F0BD434699B2059B591A89B2D8
:10147000013101339BB25246821A92B201320130DD
:1014800080B292B289B20491B2E770B50D00846D5A
:101490001734FF2914D8602903D98823C35AE418C4
:1014A00006E0402904D98623C35AE41800E0E41872
:1014B0006378002B20D02278AA42F8D1A01C1CE02F
:1014C0008A23C35AE418260000213000FFF7DAFD12
:1014D000241802213000FFF7D5FD04368542F3D8E9
:1014E00001E0A378E418227812026378134305D050
:1014F0009D42F6D1E01C00E0002070BD0020FCE71A
:1015000010B50400642021526621625219002000A7
:10151000FFF7BBFF011E04D02000FFF7FDFE80B2E5
:1015200010BD0020FCE770B50400FFF7AEFF011E00
:1015300016D02000FFF733FE250060357A23E15CEA
:101540002800FFF746FE9023E054153BE15C28009D
:10155000FFF73FFE7C23E15C2800FFF73AFE70BDF9
:101560000020FCE7F0B5C64600B504000D006A2374
:101570000022C25400F052FC40235B4298460027F0
:10158000002601E0F619B6B2636829782000984772
:10159000144A90420FD00135134A9042F4D0010012
:1015A0002000FFF7C0FF87B243464033EAD19023C3
:1015B000E3569846E6E76A23E356002B0ED0F71B66
:1015C000BFB29BB2DB199BB29022A656B6B2F618F8
:1015D000B6B24346002B01DD4644B6B2300080BCB3
:1015E000B846F0BDFFFF0000FEFF0000F8B50400A4
:1015F0000D0016001F007023C35C022B1BD008D8FF
:10160000002B0DD0012B0FD1C36D98472D1AADB211
:101610000AE0032B08D1C36D98472D18ADB203E043
:10162000C36D98473618B6B23B003200290020003F
:10163000FFF766FFF8BDC36D9847361AB6B2F3E7F9
:10164000F0B5C64600B504000F0016001D0000F0FE
:10165000E5FB0023984609E0032B04D1361AB6B205
:1016600001E03F18BFB2404483B2984663682978CE
:10167000200098470F49884218D001350E4988420A
:10168000F4D00300320039002000FFF7AFFF7023D1
:10169000E35C022B07D0DFD8002BE2D0012BE2D194
:1016A0003618B6B2DFE73F1ABFB2DCE7404680BC6F
:1016B000B846F0BDFFFF0000FEFF000010B5024C71
:1016C0004460FFF7BDFF10BD051E000830B5836DF7
:1016D000002B1DD08123C2560D33C2540C3BC35680
:1016E0008F2143540239415C002911D0012910D0C7
:1016F0007E214156802404570D19AA4204DAC9B24A
:10170000E2B289188E228154A34201DD8F23C45492
:1017100030BD823141568A4201DA8E2281548422C0
:1017200082569342F4DD8F23C254F1E7014BC36527
:101730007047C0469310000810B50400836D8B42BB
:1017400006D081657430FFF7A6FC2000FFF7BEFFCE
:1017500010BD000010B5024B4360FFF703FF10BD42
:10176000051E000801608A7C2223C254704770B5B0
:1017700004004569002300222821A847E5680023CA
:10178000002214212000A84701224B21200000F054
:101790008EF823681A792921200000F088F80022A9
:1017A0004B21200000F083F823681A7929212000BA
:1017B00000F07DF801224B21200000F078F823682A
:1017C0005A792921200000F072F870BD10B582B05E
:1017D0001C006B4659719A711C71049A00928468BE
:1017E00001220F21A04702B010BD10B5846800236C
:1017F00000220921A04710BD10B5846800230022F3
:101800000A21A04710BD10B50A00846800230B21EF
:10181000A04710BD10B58468002300221021A04706
:1018200010BD00207047000000230360074A82605B
:10183000C260026142612322835403328354836174
:10184000FF33023A8354043283547047231800084C
:10185000F8B504000F0016001D00FFF7E5FFA760B4
:10186000E6602561069B63612000FFF7BEFFF8BDBF
:1018700010B5130004690A001721A04710BD00B578
:1018800083B06B46DA1D11700121FFF7F1FF03B041
:1018900000BD10B50469002300221821A04710BD27
:1018A00010B50469002300221921A04710BD10B50E
:1018B00044690023A04710BDF8B5050014001E00C0
:1018C0000E295BD010D80B2943D00D290AD1002A4C
:1018D0004BD1324900F0F5F92B689A7C2223EA5467
:1018E000012059E0002057E00F2930D100F0DBF94A
:1018F0007379DB00DBB22222AF5CFF18FFB240211C
:10190000280000F0BBF9390910231943C9B2280097
:1019100000F0B4F90F213940280000F0B6F9B3798E
:10192000502149421943C9B2280000F0AEF931797B
:101930003268C900C9B2280000F0AEF9013CE4B237
:10194000002CF4D1280000F0B5F9012024E000209B
:1019500022E0002A04D1124900F0B3F901201BE073
:10196000104900F0AEF9012016E00F4900F0A9F986
:101970002B68DA7C2223EA5401200DE000F093F971
:101980008121280000F07AF92100280000F07DF97B
:10199000280000F08FF90120F8BDC0467C2E000819
:1019A0008C2E0008842E0008742E000870B50500E7
:1019B0000C00FFF781FF002812D1092C0AD00A2C55
:1019C0000FD12800FFF7D3FE0649280000F079F96F
:1019D000012006E004492800FFF7C4FE012000E0D2
:1019E000012070BD942E00085C2E000870B584B0F4
:1019F00004000D000A480B49009313000200200068
:101A0000FFF726FF0F266E443000FFF733FB01007F
:101A1000054B327800952000FFF708FB04B070BD3D
:101A2000311D0008AD190008B31B00088A4205D219
:101A3000834209D89A4209D9012006E0834207D996
:101A40009A4207D9012000E0012070470020FCE7FE
:101A50000020FAE70020F8E770B506000C001D0032
:101A600004AB1B884E21415A4C20305AFFF7DEFF51
:101A7000002807D04A23F15A023BF05A2B002200DB
:101A8000FFF7D4FF70BD30B505880C886419A4B287
:101A9000A54203D99D4210D25C1EA4B29D420ED233
:101AA00094420ED9954200D32A009C4200D82300CC
:101AB00002809B1A0B80012030BD1500EEE700204C
:101AC000FAE70020F8E730B583B006AC2578C48F7C
:101AD000121B92B2C46A0095A04703B030BD70B526
:101AE00084B0040008A805780E206844018003A98A
:101AF0000A800A226A4413808C23E35C002B30D0D6
:101B00001388002B2DD0012B03D9022D2BD0032DB0
:101B100030D001231E002E402B4233D14B33E25AEA
:101B200003AB1B889A421CD84E22A25A934218D269
:101B30004A23E35A4822A25A0A2169440E206844E3
:101B4000FFF7A1FF00280CD0236B9D680A236B448C
:101B50001B8803AA12880E21694409880096200078
:101B6000A84704B070BD0288D31A9BB2038001332A
:101B70000380CEE703A90A88D31A9BB20B800133F6
:101B80000B80C6E74823E25A3A3B6B441B889A42D3
:101B9000E7D84A22A25A9342E3D24E23E35A4C2278
:101BA000A25A0A21694403A8FFF76DFF0028CBD190
:101BB000D7E7F0B5C64600B5884606AC26780727B5
:101BC00017400124BC40E4B29225415D01291DD992
:101BD000002501291CD007218A430168097C4A435A
:101BE00092B2416B8C46424411006144002E19D1DF
:101BF0000A782A43D2B20A7062400A700131013B6E
:101C00009BB2002BF4D180BCB846F0BD2500E0E7C4
:101C10000024E0E7012519E06D00EDB26400E4B2B4
:101C2000002BF0D00A782A43D2B20A7062400A70C0
:101C30007A1C072637001740013B9BB21642EBD1B6
:101C4000428F89189222825C012AE3D9012AE7D0C7
:101C50000124E5E7F8B504000D001600FFF719FEB2
:101C600040212000FFF70BFE276933002A001721CF
:101C70002000B8472000FFF713FEF8BD10B50A009A
:101C8000C46800231521A04710BD10B50A00C46820
:101C900000231621A04710BD10B51300C4680A0028
:101CA0001721A04710BD10B5C468002300221821D9
:101CB000A04710BD10B5C468002300221921A04719
:101CC00010BD70B582B006000C0009E015292DD3B7
:101CD0002A786B46DA71F56800233000A847023491
:101CE0002178651C19290FD8182918D21629EDD981
:101CF00017291BD163786A4607321370012130001F
:101D0000FFF7CAFF0234EBE7FE290FD12A786B46B2
:101D1000DA7129213000FFF7CAFD0234E0E7F468E8
:101D2000002300223000A0472C00D9E702B070BD8C
:101D3000F8B5070014001E000D00143DEBB2052B92
:101D400059D89D002D4B5B599F462D4B1B78002B7E
:101D50000FD13800FFF79DFD00213800FFF78FFD00
:101D600021003800FFF78BFD254B01221A7001205E
:101D7000F8BDFFF795FDECE71100FFF780FD0120AE
:101D8000F6E71F4B1B78002B0AD0FFF789FD07E011
:101D9000320018213800FFF75DFF183CE4B2183616
:101DA000182CF5D8320021003800FFF753FF144BF0
:101DB00000221A700120DBE72423C35CFF2B05D02F
:101DC0003D69330022003800A847D1E7DB3B782289
:101DD000C254F5E70A4B00221A700120C8E7084BED
:101DE0001B78002B04D1064B00221A700120BFE79C
:101DF000FFF756FDF7E70020BAE7C046CC2E0008F3
:101E000014050020002903D00A2903D008007047D8
:101E10000148FCE70048FAE7FFFF00002623002204
:101E2000C254704713488546FEF7D4FE1248016835
:101E3000090E124A914205D1114812490160124817
:101E40001249016012481349134A002302E0D45892
:101E5000C4500433C4188C42F9D3104A104C0023E8
:101E600001E013600432A242FBD300F05FF8FEF7FA
:101E700035FAFEE700180020040000001F000000F3
:101E800018100240010000000000014000000000A6
:101E9000000000205C000020202F00085C000020D3
:101EA00060060020FEE700000CB430B5174B0C00B4
:101EB0001D689DB0002908DA8B2301202B60404269
:101EC0001DB030BC08BC02B01847822302A99B0099
:101ED0008B81002302904B6608619C4200D0631EF8
:101EE0008B604B6101235B42CB81280021AB209AA0
:101EF000019300F0A1F9431C01DA8B232B60002C25
:101F0000DED00022029B1A70DAE7C0460C000020E7
:101F100003008218934200D1704719700133F9E72A
:101F2000014B18687047C0460C00002070B50026B1
:101F30000C4C0D4D641BA410A64209D1002600F0E4
:101F400061FC0A4C0A4D641BA410A64205D170BD69
:101F5000B300EB5898470136EEE7B300EB589847CB
:101F60000136F2E7182F0008182F00081C2F000870
:101F7000182F00087047704770B505000C1E10D070
:101F8000043C2368002B00DAE418280000F0E0F895
:101F90001D4A1368002B05D163601460280000F00F
:101FA000DFF870BDA34208D9206821188B42F3D115
:101FB00019685B6809182160EEE71A005B68002B5E
:101FC00001D0A342F9D911685018A0420BD1206862
:101FD0000918501811608342E0D118685B684118F5
:101FE00011605360DAE7A04202D90C232B60D5E7D9
:101FF000206821188B4203D119685B680918216099
:1020000063605460CAE7C0465C06002070B50F4E9E
:102010000D0031680400002902D100F095FB30600A
:102020002900200000F090FB431C03D101256D42E4
:10203000280070BD0323C51C9D43A842F8D0291A6F
:10204000200000F081FB0130F2D1EFE758060020BC
:10205000F7B50322CB1C9343083305001F000C2B5C
:1020600034D20C27B94233D8280000F071F8374E2B
:1020700033681C00002C2FD139002800FFF7C6FF61
:102080000400431C5FD134680094009B002B4AD1AC
:10209000002C52D023682800E3180099019300F027
:1020A00053FB019B834248D123682800FF1A390063
:1020B000FFF7ACFF013040D02368DB1923603368A1
:1020C0005A68002A33D1009B336019E0002BC9DA2B
:1020D0000C232B600020FEBD2168C91B20D40B29D6
:1020E0000AD9E2192760A34204D132606368116003
:1020F000536005E05A60F9E76268A3420ED132608E
:10210000280000F02DF8200007220B30231D9043FB
:10211000C21A9842DFD01B1AA350DCE75A60EFE7DF
:1021200023006468A6E7009C63680093ADE71A008B
:102130005B68A342FBD10023DAE70C2328002B6065
:1021400000F00EF8C6E70760DAE7C0465C0600203C
:1021500010B50248FFF70EFF10BDC0465406002020
:1021600010B50248FFF707FF10BDC0465406002017
:10217000F0B58E6885B01F000C003300029003920A
:10218000BE4254D80C22885E9022D20010422CD03D
:102190000322096923685B1A019363695343019A17
:1021A000DD0FED187B1C6D109B182A00AB4201D986
:1021B0001D001A00400527D511000298FFF748FFBF
:1021C000061E2AD0019A216900F0DBFAA289194B78
:1021D0001A4080231343A381019B2661F6182660D1
:1021E00065613E00ED1A3B00A5601F003A000399AF
:1021F000206800F097FA0020A3689B1BA360236867
:10220000DB19236005B0F0BD029800F0C3FA061E8A
:10221000E2D121690298FFF7AFFE0C230120029A58
:1022200040421360A28934331343A381EAE73E009E
:10223000DCE7C0467FFBFFFFF0B59FB002901D00BA
:102240008B890F0016001B0612D50B69002B0FD1CE
:102250004021FFF7FDFE38603861002806D10C23CD
:10226000029A1360012040421FB0F0BD40237B6101
:10227000002306AC6361203363761033A3760595A3
:1022800035002B78002B01D0252B48D1AB1B0393B5
:10229000B5420BD0320039000298FFF769FF0130D8
:1022A00000D1AAE06369039A9B1863612B78002B25
:1022B00000D1A2E00122532100235242626002AA0F
:1022C00052186E1C2360E360A3601370A365524B29
:1022D000052218003178039300F048FA751C226833
:1022E00000281ED1D30604D5202302A95330091893
:1022F0000B70130704D553202B2302A909180B7068
:1023000033782A2B15D0350000210A20E3682A787B
:102310006E1C303A092A4ED9002910D116E0013539
:10232000AFE7039B2E00C01A0123834013432360B1
:10233000CDE7059B191D1B680591002B01DBE360B0
:1023400004E05B42E3600223134323602B782E2BCF
:102350000CD16B782A2B33D1059B02351A1D1B68D3
:102360000592002B01DA01235B4263602B4E0322AE
:102370003000297800F0FAF9002806D04023801BAD
:1023800083402268013513432360297806222448BC
:102390006E1C217600F0EAF9002834D0214800288C
:1023A00021D10722059B07339343083305936369C3
:1023B0001B18636164E74343350001219B18A6E7BE
:1023C00000230A201900013563602A786E1C303A18
:1023D000092A03D9002BC9D06160C7E74143350002
:1023E00001238918F1E705AA009221003A000E4B5B
:1023F000029800E000BF431CD9D1BB895B0600D521
:1024000030E7606930E705AA009221003A00064BE8
:10241000029800F07BF8EEE7E42E0008EA2E0008B0
:10242000EE2E00080000000071210008F7B516002C
:1024300001938A680B690C000090934200DA130044
:102440002200336043321278002A01D00133336016
:1024500023689B0602D53368023333602268062363
:1024600015001D401A4227D0230043331B785A1E03
:1024700093412268920630D4220001990098089D69
:102480004332A847013025D0062223680025134097
:10249000042B05D13368E568ED1AEB43DB171D40CB
:1024A000A3682269934201DD9B1AED180026B5420C
:1024B00020D1002010E00135E36832689B1AAB425E
:1024C000D2DD2200012301990098089F1932B847F4
:1024D0000130F0D101204042FEBD3020E1184331EF
:1024E000087021005A1C45310978A2184332023382
:1024F0001170C1E72200012301990098089F1A3248
:10250000B8470130E6D00136D1E70000F0B58BB016
:1025100006920A0043320793059003920A7E0C004C
:10252000109B782A09D8622A0BD8002A00D1BBE078
:102530007A490491582A00D18FE0250042352A704B
:1025400022E0100063381528F7D8FDF7B9FD160012
:102550001F00F6FFF6FFF6FFF6FF1F00F6FFF6FF7F
:10256000F6FFF6FFA00036007F00F6FFF6FFB10091
:10257000F6FF3600F6FFF6FF830025001A684235A5
:10258000111D196013682B7001239FE018680968FA
:10259000021D0D060BD506681A60002E03DA2D23E6
:1025A000039A764213705D4B0A27049319E006687C
:1025B0001A604906F1D536B2EFE71A68096840CAD1
:1025C000080602D4490600D5B6B21A60237E534AE3
:1025D0000A2704926F2B00D1023F230000224333CD
:1025E0001A706368A360002B06DB04212268039D38
:1025F0008A43226033430CD0039D30003900FDF73D
:10260000EFFD049B013D5B5C2B70330006009F4295
:10261000F3D9082F09D12368DB0706D5626823693F
:102620009A4202DC3023013D2B70039B5B1B23612C
:10263000079B210000930598069B09AAFFF7F6FE69
:10264000013048D1012040420BB0F0BD2022096882
:102650000A432260782232490491210045310A70F0
:102660001968226840C9100602D4500600D5B6B2D7
:102670001960D30702D5202313432360002E01D015
:102680001027AAE72022236893432360F8E71A68FB
:102690000D68101D4969186013682E0601D5196070
:1026A00002E06D06FBD519800023039D2361BFE77F
:1026B0001A68111D1960156800212800626800F071
:1026C00055F8002801D0401B606063682361002337
:1026D000039A1370ACE72A00236906990598079DB1
:1026E000A8470130AED023689B0715D4099BE0684A
:1026F0009842A9DA1800A7E7220001230699059855
:10270000079E1932B04701309CD00135E368099A21
:102710009B1AAB42F0DCE9E70025F7E7F52E00084D
:10272000062F000810B5884202D98B18984208D3AA
:1027300000239A4207D0CC5CC4540133F9E78B5C88
:102740008354013AFBD210BD002370B5064D04003E
:1027500008002B60FEF740FA431C03D12B68002BC6
:1027600000D0236070BDC04650060020C9B2821858
:10277000904201D10020704703788B42FBD001309A
:10278000F6E7002310B59A4200D110BDCC5CC454CA
:102790000133F8E7F7B506000C001500002905D154
:1027A0001100FFF755FC04002000FEBD002A03D1F4
:1027B000FFF7E2FB2C00F7E700F01CF8070085426A
:1027C00002D84308AB42EFD329003000FFF740FCAA
:1027D0000190002801D1019CE6E72A00BD4200D902
:1027E0003A0021000198FFF7CCFF21003000FFF7ED
:1027F000C3FBF0E70B1F1B68181F002B01DA0B58F7
:10280000C0187047F8B5C046F8BC08BC9E46704773
:0C281000F8B5C046F8BC08BC9E467047F6
:10281C004D617274696E204772616E690000000030
:10282C0074203D20256C7520757300000102030493
:10283C0005060708090A0B0C0D0E0F100203040500
:10284C00060708090A0B0C0D0E0F101000000000F3
:10285C000000000001020304060708095B0F0008D2
:10286C00D70F0008FD0F00085F00030304050305E4
:10287C00060E1100FC0CFC0CFD01E6041805C8202A
:10288C000500184B2109C20C4D1C2C6904220A4569
:10289C008A51485824A100231BC908D3498412A18A
:1028AC004474881C4212A14474881C4212A144280E
:1028BC0091012414E7FAD2052B0749841223728B59
:1028CC00502207493106251FCD085D4983B4A04825
:1028DC00141449C2A4B8280E0DC943E488481852F0
:1028EC008C11A322002616CA0A59518D22A1484ADE
:1028FC009E499A2AB2916C76888D062707428A499E
:10290C005802280CF4DA4C49264AFA9B6824290E02
:10291C00F4D84C88463291FE229988002A0B5578BF
:10292C004DA5A48C26B1002B0D880AD589D50E0790
:10293C0099580D002C0952DA48502212002D072408
:10294C00384B1C022E06220A49102F0FC408CB2527
:10295C00896221512C248AA501300FC80853D12C2F
:10296C00A3221F4B131B0900310AC50A53C60E358F
:10297C00FD01320FC80853D12CA322513ADCF1705F
:10298C00103312C80853D12CA3A2744624174B132E
:10299C001B09003413C808530E69129944A48B4CBC
:1029AC00723848C52A003511C808533989A53553E2
:1029BC006C2C2E4D6C24003612C80853D12CA3B2AB
:1029CC006474191589A5898D04370FC808533C48C0
:1029DC00C552B154AC2A56043813C80853D12CA391
:1029EC00A24424A35946C5D2C446023912C808537E
:1029FC00D12CA322B134394DC4A5898D043A088257
:102A0C000C4BD021043B0BB2DC4AD021948804003F
:102A1C003C0C880A550B49A4E99C4C163D0B681AD2
:102A2C00553CC8910E07013E0C880A5588D9A7233E
:102A3C004631003F10C70AD5540E329A543854957B
:102A4C004395004022EDEA605A8732392414AB904A
:102A5C006421594CA426528B89944821519A4826BA
:102A6C0087CEE445004116CB0859CE21F3B2443A47
:102A7C0019CA644B52D14172B0D3054214C90A57DA
:102A8C009C0E11619578A01C22C22AF14039014399
:102A9C0016CA0AD9154FB389B42E87C82173885426
:102AAC00321B1D4B004415CA0A59180F21E1442A48
:102ABC00919659AB12E1E4103202450EC80A553C0E
:102ACC0090952F17B1F2E120460DC80A553C909510
:102ADC002F17B1CE004716CA0AD9154FB389B42E99
:102AEC0087086F14A964363AC42802480CCA0A59DC
:102AFC0088391F1EC67C164907C20A497C184A0C25
:102B0C00C70AD3EA571AED20A9004B19CB0A59482A
:102B1C0027C2916C261A4AA665AB68289B0947D236
:102B2C008978004C0BC80A5588F5CF8783004D195E
:102B3C00CB0A5B4C5D6F87982516A1A85054489121
:102B4C001069441AD162024E15CA0A594C8D468A34
:102B5C008C22238948229A842621BA0E4F14CB0A40
:102B6C00DB556F4B52C9B44EAF4EA4A2D9EC5A03ED
:102B7C005010C90A579C0E116195F14039C9B50323
:102B8C005117DBFADA556F4B52C9B44EAF8524A2FC
:102B9C00D28876BD8342005219CA0A591C42078951
:102BAC00542295082787D021249C48255289B43A71
:102BBC005311C90A57D52EB3AAD95AAFD626B71274
:102BCC00005419CA08553C18E51039440E9143E4D9
:102BDC001039440E9143E4102100550DCA0A59884E
:102BEC00F9E7E2E41033015618CA085788C912A154
:102BFC00482812CA444291502425D3E5102100578D
:102C0C001ECE085F088544215145A62422299164D3
:102C1C00925044482292A842B1502C94015814C9A5
:102C2C000A57486B13998AB03A9E16253295595516
:102C3C00005918CA0857888B13A14C241449C9741D
:102C4C0039440E9143E41021005A0FC80A553C48F0
:102C5C00A7AAC3A9EAF470105B0BF4DA4C1C46FA71
:102C6C004F87005C0DC4084BC462B234599A2C03D4
:102C7C005D0BF4D84C1C42FA4F87015E0D785AD587
:102C8C0089A53491162151005F0719D8521C046094
:102C9C000833AC4D8464016111980AD3942E32E947
:102CAC00C83292C824A7C9006211C80A5588B58CCD
:102CBC002EA32263E930918C00630E980A53D12C19
:102CCC00A3B2F268622301640FC80A556BB21C46AA
:102CDC0045C6D2E43411650F980A55D12CC2C3C134
:102CEC003C9AD84800660DC40A4D4926924344A428
:102CFC002F006713D8CA544D24875191B134394DE4
:102D0C00C4A5898D04680DC80A5588B5500E3422A7
:102D1C001F056909C20A49900E07026A0B03CBCA48
:102D2C00284AF42F17006B14C80A5388B5952692BD
:102D3C0051CD3411892632896C006C07C20A497C4A
:102D4C00186D169C0A5D482893C32134A2C96832B9
:102D5C009A8C26A3C9680A6E0C980A554828071A3B
:102D6C00918F026F0E980A55D12CA32263696223AE
:102D7C00017012D8CA544846975191B1749848467C
:102D8C0062CD007110D8CA544D24875191B1343999
:102D9C004DC43A720B950A4D480E2399DE00730E02
:102DAC00970AD3540E3263B576905400740DB40A5E
:102DBC00CD8824878848A79100750B980A5508F987
:102DCC00ED40A108760F98085308891291DE8854BB
:102DDC00B10C0077159C085BC864341591BE506427
:102DEC0087E0682A128B6400780F970A53C8681220
:102DFC00A5DAAC2451A3097915D8C85208891299BF
:102E0C00442493C82432EA54AC3895027A0C9708BF
:102E1C00513CCE86C2D9EC707B0EF4DA4C4926229A
:102E2C005D64229D46027C0701CB483C087D0EF474
:102E3C00DA4C88467A9388749988007E0A383AD599
:102E4C00CC446A130000000004FFFF0000000000E7
:102E5C000001140A6464323200127A0000042896CD
:102E6C0010080000800040001815A015C019FF00C4
:102E7C001815A115C819FF001815AE19FF00000090
:102E8C001815AF19FF0000001815AE15D5168015D2
:102E9C00A8163F15D316001540158D1614152016BF
:102EAC000015A115C815DA1612158116CF15D916ED
:102EBC00F115DB1640152E15A415A619FF00000000
:102ECC00B81D00084A1D0008781D0008821D000866
:102EDC00D41D0008DE1D0008232D302B2000686C4B
:102EEC004C00656667454647003031323334353621
:102EFC00373839414243444546003031323334355A
:0C2F0C0036373839616263646566000086
:042F1800610200084A
:042F1C003502000872
:102F2000010000000400000000127A0010000020E0
:102F3000000000001805002080050020E8050020A2
:102F40000000000000000000000000000000000081
:102F50000000000000000000000000000000000071
:102F60000000000000000000000000000000000061
:0C2F700000000000000000000000000055
:0400000508001E25AC
:00000001FF
