:020000040800F2
:1000000000180020C10B0008E5020008E702000804
:1000100000000000000000000000000000000000E0
:10002000000000000000000000000000E9020008DD
:100030000000000000000000EB020008ED020008D4
:10004000410C0008410C0008410C0008410C00085C
:10005000410C0008410C0008410C0008410C00084C
:10006000410C0008410C0008410C0008410C00083C
:10007000410C0008410C0008410C0008410C00082C
:10008000410C00080000000000000000410C0008C6
:1000900000000000410C0008410C0008410C000861
:1000A00000000000410C0008410C0008410C000851
:1000B000410C000800000000410C0008410C000841
:1000C000002243088B4274D303098B425FD3030A97
:1000D0008B4244D3030B8B4228D3030C8B420DD3AA
:1000E000FF22090212BA030C8B4202D31212090238
:1000F00065D0030B8B4219D300E0090AC30B8B4276
:1001000001D3CB03C01A5241830B8B4201D38B0323
:10011000C01A5241430B8B4201D34B03C01A5241C8
:10012000030B8B4201D30B03C01A5241C30A8B420B
:1001300001D3CB02C01A5241830A8B4201D38B02F6
:10014000C01A5241430A8B4201D34B02C01A52419A
:10015000030A8B4201D30B02C01A5241CDD2C3090C
:100160008B4201D3CB01C01A524183098B4201D388
:100170008B01C01A524143098B4201D34B01C01A73
:10018000524103098B4201D30B01C01A5241C308EB
:100190008B4201D3CB00C01A524183088B4201D35A
:1001A0008B00C01A524143088B4201D34B00C01A46
:1001B0005241411A00D20146524110467047FFE7B2
:1001C00001B5002000F006F802BDC0460029F7D0B6
:1001D00076E770477047C0460448054B10B5834228
:1001E00003D0044B002B00D0984710BD0C0000201A
:1001F0000C0000200000000006480749091A8B1077
:10020000C90FC91810B5491003D0044B002B00D0FA
:10021000984710BD0C0000200C00002000000000DA
:1002200010B5074C2378002B09D1FFF7D5FF054BFC
:10023000002B02D0044800E000BF0123237010BD52
:100240000C000020000000009C0C0008054B10B5BD
:10025000002B03D00449054800E000BFFFF7CCFFA6
:1002600010BDC04600000000100000209C0C0008DB
:1002700072B6FEE710B592B005AC34220021200022
:1002800000F0DFFC1022002101A800F0DAFC0223BC
:100290000593013B08930F330993200000F042F8C7
:1002A00000280DD101A80723019300234360836038
:1002B000C360002100F014FB002803D112B010BD70
:1002C000FFF7D6FFFFF7D4FF10B500F0D3FBFFF721
:1002D000D1FF00F059FC00F06BFCFA20400000F068
:1002E000EBFBF8E7FEE7FEE77047704710B500F05C
:1002F000D1FB10BD82B00A4B99690122114399616B
:1003000099690A400092009ADA69802149050A43F6
:10031000DA61DB690B400193019B02B07047C04674
:100320000010024070B582B0041E00D17FE2036865
:10033000DB072BD5B34B5A680C231340042B1DD07D
:10034000B04B5A680C231340082B0ED06368012B66
:1003500041D0002B56D1AB4B1A68AB490A401A600A
:100360001A68AA490A401A603BE0A64B5B68C022A3
:1003700052021340802252029342E7D1A14B1B68E4
:100380009B0303D56368002B00D153E223689B07CE
:1003900077D59C4B5B680C221A4262D0994B5A6805
:1003A0000C231340082B53D0E368002B00D18AE0C4
:1003B000944A136801210B43136000F077FB05009A
:1003C000904B1B689B0775D400F070FB401B022804
:1003D000F6D903202CE28B4A116880235B020B4381
:1003E00013606368002B25D000F060FB0500854B8F
:1003F0001B689B03CAD400F059FB401B6428F6D944
:10040000032015E2052B09D07E4B1A687E490A406D
:100410001A601A687D490A401A60E2E7794B196848
:100420008022D2020A431A601968802252020A43CB
:100430001A60D6E700F03AFB0500724B1B689B037D
:10044000A4D500F033FB401B6428F6D90320EFE16C
:100450006C4B5B68C022520213408022120293420E
:10046000A2D1684B1B689B0703D5E368012B00D022
:10047000E2E164490B68F82293432269D2001343F6
:100480000B6023681B0744D5E369002B2ED05D4A1F
:10049000536A01210B43536200F008FB0500594BDE
:1004A0005B6A9B0735D400F001FB401B0228F6D99C
:1004B0000320BDE153490B68F82293432269D2001F
:1004C00013430B60DDE74F4A136801218B43136030
:1004D00000F0ECFA05004B4B1B689B07D1D500F0F0
:1004E000E5FA401B0228F6D90320A1E1454A536AE8
:1004F00001218B43536200F0D9FA0500414B5B6A3E
:100500009B0706D500F0D2FA401B0228F6D903203B
:100510008EE123685B0700D480E03A4BDB69DB00A7
:100520001DD4384BDA69802149050A43DA61DB6959
:100530000B400193019B0125354B1B68DB0510D552
:10054000A368012B21D0002B36D12E4B1A6A012132
:100550008A431A621A6A03318A431A621AE0002532
:10056000EAE72B4A116880235B000B43136000F01D
:100570009DFA0600264B1B68DB05E1D400F096FAD5
:10058000801B6428F6D9032052E11E4A136A012118
:100590000B431362A368002B24D000F087FA0600F7
:1005A000184B1B6A9B0737D400F080FA801B194B4D
:1005B0009842F5D903203BE1052B09D0114B1A6A6B
:1005C00001218A431A621A6A03318A431A62E1E7F7
:1005D0000C4B1A6A04210A431A621A6A03390A4345
:1005E0001A62D7E700F062FA0600064B1B6A9B0707
:1005F00012D500F05BFA801B064B9842F5D9032018
:1006000016E1C04600100240FFFFFEFFFFFFFBFFA8
:100610000070004088130000012D39D02368DB06EC
:1006200010D56369012B39D0053357D1894A536BF3
:1006300004218B435363536BF4318B43A169C9008D
:100640000B43536323689B066ED5824B5A680C2379
:1006500013400C2B60D07F4B5A680C231340082B9F
:1006600053D0236A002B7ED07A4A516B80235B02E1
:100670000B43536300F01AFA0500764B5B6B9B0348
:1006800052D400F013FA401B0228F6D90320CFE021
:10069000704AD36970490B40D361BFE76D4B5A6B09
:1006A00004210A435A635A6B03390A435A6300F020
:1006B000FDF90500674B5B6B9B0706D400F0F6F96C
:1006C000401B0228F6D90320B2E062494B6BF822A6
:1006D0009343A269D20013434B63B3E75D4B5A6B5C
:1006E00004210A435A635A6B03398A435A6300F060
:1006F000DDF90500574B5B6B9B07A3D500F0D6F9DE
:10070000401B0228F6D9032092E0524B5B68C022BE
:10071000520213409342A4D14E4B5B6B9B0303D513
:10072000236A012B00D089E0636A002B00D187E0A7
:10073000484A51680C220A40082A60D0022B25D072
:10074000444A136845490B40136000F0AFF90400B8
:10075000404B1B689B0150D500F0A8F9001B0228F4
:10076000F6D9032064E03B4A536B3D490B40536389
:1007700000F09CF90500374B5B6B9B03D4D500F070
:1007800095F9401B0228F6D9032051E0314A13683D
:1007900032490B40136000F089F905002D4B1B68AE
:1007A0009B0106D500F082F9401B0228F6D90320F0
:1007B0003EE0284BDA6A0F218A43216B0A43DA6252
:1007C0005A6828490A40E16AA06A01430A435A600C
:1007D0001968802252040A431A6000F067F9040085
:1007E0001C4B1B689B0106D400F060F9001B02281B
:1007F000F6D903201CE000201AE0002018E0012BAD
:1008000020D0144B5A68D86AC0235B021340A16AF7
:100810008B4219D10F230340216B8B4216D1F02359
:100820009B031A40E36A9A4212D1002000E00120A3
:1008300002B070BD0120FBE70120F9E70120F7E7D6
:100840000020F5E70120F3E70120F1E70120EFE7C1
:100850000120EDE700100240FFFFFFEFFFFFFFFE6A
:10086000FFFFFEFFFF7FC2FF10B5184B5A680C2335
:100870001340082B03D00C2B25D1154810BD910C2B
:100880000F2319401348445C1049C96A0B401249B0
:10089000C95CC0235B021A4080235B029A4208D0E5
:1008A000C0235B029A4209D00C48FFF709FC604361
:1008B000E4E70A48FFF704FC6043DFE70448FFF77A
:1008C000FFFB6043DAE70548D8E7C0460010024066
:1008D000006CDC02C40C0008B40C000800127A00A2
:1008E00070B504000D00002800D186E0474B1A685F
:1008F000012313408B420AD244490B6801229343DF
:100900002B430B600B681A40AA4200D077E02368A3
:100910009A070ED55B0705D53D4A5168E023DB00F9
:100920000B4353603A4A5368F0218B43A1680B4351
:1009300053602368DB0735D56368012B09D0022B90
:1009400024D0032B28D0324A1268920705D4012004
:1009500052E02F4A1268920353D52D494A6803206A
:10096000824313434B6000F0A1F80600284B5B68FC
:100970000C221A4063689B009A4213D000F096F84C
:10098000801B244B9842F1D9032035E0204A12689D
:100990009201E2D401202FE01D4A526B9203DCD475
:1009A000012029E0194B1A6801231340AB4209D9F1
:1009B00016490B68012293432B430B600B681A40C6
:1009C000AA4220D123685B0706D5114A5368124911
:1009D0000B40E1680B435360FFF746FF0C4B5A682E
:1009E00012090F2313400D4AD35CD8400C4B1860FA
:1009F000032000F017F8002070BD0120FCE7012063
:100A0000FAE70120F8E70120F6E7C046002002409F
:100A10000010024088130000FFF8FFFFD40C00080C
:100A20000800002010B504000F4B1978FA20800050
:100A3000FFF746FB01000D4B1868FFF741FB00F084
:100A40009DF800280DD1032C01D901200AE00130C6
:100A500000222100404200F08DF8054B1C60002070
:100A600000E0012010BDC04600000020080000206A
:100A70000400002010B5064A136810210B431360D0
:100A80000320FFF7CFFFFFF735FC002010BDC04665
:100A900000200240034A1168034B1B785B18136067
:100AA0007047C0462800002000000020014B186855
:100AB0007047C0462800002070B50400FFF7F6FF1D
:100AC0000500631C02D0044B1B78E418FFF7EEFF0F
:100AD000401BA042FAD370BD0000002070B5002872
:100AE00011DB8308134DC0339B005C590322104077
:100AF000C000FC3216008640B44389010A4082409F
:100B000022435A5170BD0F230340083B9B08063314
:100B10009B00094A944663445C6803221040C0006D
:100B2000FC3215008540AC4389010A4082402243D3
:100B30005A60E7E700E100E000ED00E001388023C3
:100B40005B0498420FD2094A50600948036A1B02AD
:100B50001B0AC02109060B4303620023936007337D
:100B60001360002070470120FCE7C04610E000E061
:100B700000ED00E010B5FFF7B1FF10BD10B5FFF7B5
:100B8000DDFF10BD70470000074A51698023DB027A
:100B90000B435361054B1968C0220A401A601A685A
:100BA00040210A431A6070470010024000040048C8
:100BB000024A536908214B405361704700040048C2
:100BC00013488546FFF7DEFF12480168090E124AF6
:100BD000914205D111481249016012481249016041
:100BE00012481349134A002302E0D458C450043376
:100BF000C4188C42F9D3104A104C002301E0136052
:100C00000432A242FBD300F025F8FFF75DFBFEE7BC
:100C100000180020040000001F000000181002400F
:100C20000100000000000140000000000000002062
:100C30000C000020EC0C00080C0000202C00002010
:100C4000FEE703008218934200D170471970013308
:100C5000F9E7000070B500260C4C0D4D641BA41084
:100C6000A64209D1002600F019F80A4C0A4D641B6F
:100C7000A410A64205D170BDB300EB5898470136C9
:100C8000EEE7B300EB5898470136F2E7E40C0008B2
:100C9000E40C0008E80C0008E40C0008F8B5C046B5
:100CA000F8BC08BC9E467047F8B5C046F8BC08BC06
:040CB0009E467047A5
:100CB4000102030405060708090A0B0C0D0E0F10A8
:100CC40002030405060708090A0B0C0D0E0F101089
:100CD40000000000000000000102030406070809E8
:040CE4004D020008B5
:040CE80021020008DD
:0C0CEC00010000000400000000127A006B
:0400000508000BC123
:00000001FF
