:020000040800F2
:1000000000180020AD1D000831030008330300086C
:1000100000000000000000000000000000000000E0
:100020000000000000000000000000003503000890
:10003000000000000000000037030008390300083A
:100040002D1E00082D1E00082D1E00082D1E000864
:100050002D1E00082D1E00082D1E00082D1E000854
:100060002D1E00082D1E00082D1E00082D1E000844
:100070002D1E00082D1E00082D1E00082D1E000834
:100080002D1E000800000000000000002D1E0008CA
:10009000000000002D1E00082D1E00082D1E000867
:1000A000000000002D1E00082D1E00082D1E000857
:1000B0002D1E0008000000002D1E00082D1E000847
:1000C000002243088B4274D303098B425FD3030A97
:1000D0008B4244D3030B8B4228D3030C8B420DD3AA
:1000E000FF22090212BA030C8B4202D31212090238
:1000F00065D0030B8B4219D300E0090AC30B8B4276
:1001000001D3CB03C01A5241830B8B4201D38B0323
:10011000C01A5241430B8B4201D34B03C01A5241C8
:10012000030B8B4201D30B03C01A5241C30A8B420B
:1001300001D3CB02C01A5241830A8B4201D38B02F6
:10014000C01A5241430A8B4201D34B02C01A52419A
:10015000030A8B4201D30B02C01A5241CDD2C3090C
:100160008B4201D3CB01C01A524183098B4201D388
:100170008B01C01A524143098B4201D34B01C01A73
:10018000524103098B4201D30B01C01A5241C308EB
:100190008B4201D3CB00C01A524183088B4201D35A
:1001A0008B00C01A524143088B4201D34B00C01A46
:1001B0005241411A00D20146524110467047FFE7B2
:1001C00001B5002000F006F802BDC0460029F7D0B6
:1001D00076E770477047C0460448054B10B5834228
:1001E00003D0044B002B00D0984710BD0C0000201A
:1001F0000C0000200000000006480749091A8B1077
:10020000C90FC91810B5491003D0044B002B00D0FA
:10021000984710BD0C0000200C00002000000000DA
:1002200010B5074C2378002B09D1FFF7D5FF054BFC
:10023000002B02D0044800E000BF0123237010BD52
:100240000C00002000000000881E0008054B10B5BF
:10025000002B03D00449054800E000BFFFF7CCFFA6
:1002600010BDC0460000000010000020881E0008DD
:1002700072B6FEE710B592B005AC34220021200022
:1002800001F0D5FD1022002101A801F0D0FD0223CC
:100290000593013B08930F330993200000F068F8A1
:1002A00000280DD101A80723019300234360836038
:1002B000C360002100F03AFB002803D112B010BD4A
:1002C000FFF7D6FFFFF7D4FF70B500F0F9FBFFF79B
:1002D000D1FF00F07FFC00F099FC00F087FD0500E5
:1002E000114901F0EDF91149280001F0F7F906B2C2
:1002F000802404E000F082FC1E2000F003FC2800B3
:1003000000F0B9FDA4B2094B26222100280001F01B
:1003100099F9280000F0BBFD053C24B273429C42D1
:10032000E8DA8024E6E7C046EC1E0008A01E0008BC
:10033000FEE7FEE77047704710B500F0D1FB10BD37
:1003400082B00A4B996901221143996199690A4067
:100350000092009ADA69802149050A43DA61DB6973
:100360000B400193019B02B07047C0460010024051
:1003700070B582B0041E00D17FE20368DB072BD585
:10038000B34B5A680C231340042B1DD0B04B5A6852
:100390000C231340082B0ED06368012B41D0002B97
:1003A00056D1AB4B1A68AB490A401A601A68AA4981
:1003B0000A401A603BE0A64B5B68C0225202134021
:1003C000802252029342E7D1A14B1B689B0303D5C5
:1003D0006368002B00D153E223689B0777D59C4BC1
:1003E0005B680C221A4262D0994B5A680C23134066
:1003F000082B53D0E368002B00D18AE0944A13689D
:1004000001210B43136000F077FB0500904B1B6844
:100410009B0775D400F070FB401B0228F6D903201F
:100420002CE28B4A116880235B020B4313606368E4
:10043000002B25D000F060FB0500854B1B689B035B
:10044000CAD400F059FB401B6428F6D9032015E2FA
:10045000052B09D07E4B1A687E490A401A601A683B
:100460007D490A401A60E2E7794B19688022D2027E
:100470000A431A601968802252020A431A60D6E7BA
:1004800000F03AFB0500724B1B689B03A4D500F0FB
:1004900033FB401B6428F6D90320EFE16C4B5B680B
:1004A000C02252021340802212029342A2D1684B12
:1004B0001B689B0703D5E368012B00D0E2E1644988
:1004C0000B68F82293432269D20013430B60236820
:1004D0001B0744D5E369002B2ED05D4A536A0121E6
:1004E0000B43536200F008FB0500594B5B6A9B0706
:1004F00035D400F001FB401B0228F6D90320BDE1F2
:1005000053490B68F82293432269D20013430B60CE
:10051000DDE74F4A136801218B43136000F0ECFACA
:1005200005004B4B1B689B07D1D500F0E5FA401B3B
:100530000228F6D90320A1E1454A536A01218B43E1
:10054000536200F0D9FA0500414B5B6A9B0706D560
:1005500000F0D2FA401B0228F6D903208EE123686E
:100560005B0700D480E03A4BDB69DB001DD4384BDD
:10057000DA69802149050A43DA61DB690B4001939E
:10058000019B0125354B1B68DB0510D5A368012BAA
:1005900021D0002B36D12E4B1A6A01218A431A62D0
:1005A0001A6A03318A431A621AE00025EAE72B4AE5
:1005B000116880235B000B43136000F09DFA060076
:1005C000264B1B68DB05E1D400F096FA801B6428FB
:1005D000F6D9032052E11E4A136A01210B4313622C
:1005E000A368002B24D000F087FA0600184B1B6A82
:1005F0009B0737D400F080FA801B194B9842F5D93D
:1006000003203BE1052B09D0114B1A6A01218A43D3
:100610001A621A6A03318A431A62E1E70C4B1A6ABA
:1006200004210A431A621A6A03390A431A62D7E795
:1006300000F062FA0600064B1B6A9B0712D500F019
:100640005BFA801B064B9842F5D9032016E1C046A1
:1006500000100240FFFFFEFFFFFFFBFF00700040A5
:1006600088130000012D39D02368DB0610D563699B
:10067000012B39D0053357D1894A536B04218B4361
:100680005363536BF4318B43A169C9000B4353632C
:1006900023689B066ED5824B5A680C2313400C2BA3
:1006A00060D07F4B5A680C231340082B53D0236A29
:1006B000002B7ED07A4A516B80235B020B4353633D
:1006C00000F01AFA0500764B5B6B9B0352D400F0E6
:1006D00013FA401B0228F6D90320CFE0704AD369F1
:1006E00070490B40D361BFE76D4B5A6B04210A433D
:1006F0005A635A6B03390A435A6300F0FDF9050047
:10070000674B5B6B9B0706D400F0F6F9401B022891
:10071000F6D90320B2E062494B6BF8229343A269F9
:10072000D20013434B63B3E75D4B5A6B04210A437A
:100730005A635A6B03398A435A6300F0DDF90500A6
:10074000574B5B6B9B07A3D500F0D6F9401B0228E3
:10075000F6D9032092E0524B5B68C022520213404C
:100760009342A4D14E4B5B6B9B0303D5236A012BB1
:1007700000D089E0636A002B00D187E0484A5168C5
:100780000C220A40082A60D0022B25D0444A136864
:1007900045490B40136000F0AFF90400404B1B6863
:1007A0009B0150D500F0A8F9001B0228F6D90320C0
:1007B00064E03B4A536B3D490B40536300F09CF9A6
:1007C0000500374B5B6B9B03D4D500F095F9401BBC
:1007D0000228F6D9032051E0314A136832490B4010
:1007E000136000F089F905002D4B1B689B0106D5AD
:1007F00000F082F9401B0228F6D903203EE0284B86
:10080000DA6A0F218A43216B0A43DA625A6828495F
:100810000A40E16AA06A01430A435A6019688022CB
:1008200052040A431A6000F067F904001C4B1B686D
:100830009B0106D400F060F9001B0228F6D90320C2
:100840001CE000201AE0002018E0012B20D0144BFF
:100850005A68D86AC0235B021340A16A8B4219D13F
:100860000F230340216B8B4216D1F0239B031A40C8
:10087000E36A9A4212D1002000E0012002B070BD6C
:100880000120FBE70120F9E70120F7E70020F5E769
:100890000120F3E70120F1E70120EFE70120EDE778
:1008A00000100240FFFFFFEFFFFFFFFEFFFFFEFF14
:1008B000FF7FC2FF10B5184B5A680C231340082B5A
:1008C00003D00C2B25D1154810BD910C0F231940D6
:1008D0001348445C1049C96A0B401249C95CC023E3
:1008E0005B021A4080235B029A4208D0C0235B025D
:1008F0009A4209D00C48FFF7E3FB6043E4E70A485B
:10090000FFF7DEFB6043DFE70448FFF7D9FB6043F6
:10091000DAE70548D8E7C04600100240006CDC0268
:10092000C01E0008B01E000800127A0070B5040056
:100930000D00002800D186E0474B1A6801231340C0
:100940008B420AD244490B68012293432B430B602C
:100950000B681A40AA4200D077E023689A070ED5A8
:100960005B0705D53D4A5168E023DB000B4353602C
:100970003A4A5368F0218B43A1680B4353602368C4
:10098000DB0735D56368012B09D0022B24D0032B5C
:1009900028D0324A1268920705D4012052E02F4A2B
:1009A0001268920353D52D494A68032082431343AA
:1009B0004B6000F0A1F80600284B5B680C221A403F
:1009C00063689B009A4213D000F096F8801B244B7A
:1009D0009842F1D9032035E0204A12689201E2D40E
:1009E00001202FE01D4A526B9203DCD4012029E044
:1009F000194B1A6801231340AB4209D916490B68F9
:100A0000012293432B430B600B681A40AA4220D16A
:100A100023685B0706D5114A536812490B40E16809
:100A20000B435360FFF746FF0C4B5A6812090F2324
:100A300013400D4AD35CD8400C4B1860032000F0E3
:100A400017F8002070BD0120FCE70120FAE7012023
:100A5000F8E70120F6E7C0460020024000100240FF
:100A600088130000FFF8FFFFD01E000808000020D8
:100A700010B504000F4B1978FA208000FFF720FB17
:100A800001000D4B1868FFF71BFB00F09DF80028D4
:100A90000DD1032C01D901200AE0013000222100F0
:100AA000404200F08DF8054B1C60002000E0012062
:100AB00010BDC046000000200800002004000020F7
:100AC00010B5064A136810210B4313600320FFF78B
:100AD000CFFFFFF735FC002010BDC04600200240CC
:100AE000034A1168034B1B785B1813607047C046BC
:100AF0002800002000000020014B18687047C04605
:100B00002800002070B50400FFF7F6FF0500631C05
:100B100002D0044B1B78E418FFF7EEFF401BA04205
:100B2000FAD370BD0000002070B5002811DB8308E7
:100B3000134DC0339B005C5903221040C000FC32AF
:100B400016008640B44389010A40824022435A512C
:100B500070BD0F230340083B9B0806339B00094AE6
:100B6000944663445C6803221040C000FC321500C8
:100B70008540AC4389010A40824022435A60E7E73E
:100B800000E100E000ED00E0013880235B049842C2
:100B90000FD2094A50600948036A1B021B0AC02190
:100BA00009060B43036200239360073313600020A0
:100BB00070470120FCE7C04610E000E000ED00E0D7
:100BC00010B5FFF7B1FF10BD10B5FFF7DDFF10BD89
:100BD00070470000074A51698023DB020B435361D1
:100BE000054B1968C0220A401A601A6840210A435E
:100BF0001A6070470010024000040048024A53691E
:100C000008214B40536170470004004830B5224A28
:100C100051698023DB020B435361204B186880210C
:100C200089010143196019681D4C21401960186839
:100C3000802109020143196019681A4801401960AE
:100C400059684025294359605968403529435960FE
:100C5000996821409960996801409960D96821405C
:100C6000D960D968104C2140D960D9680140D96059
:100C7000D9680E480140D960882149051962D169B7
:100C800080239B030B43D361094B0A4A1A611A68FC
:100C900001210A431A6030BD0010024000040048E0
:100CA000FFEFFFFFFFBFFFFFFFDFFFFFFF7FFFFF44
:100CB0000054004015113010084B9B691B04FBD4F5
:100CC000064B3022DA614000054A02435A605968F7
:100CD000802292010A435A607047C0460054004087
:100CE0000000010130B500228A4204D317E00F4B07
:100CF0009B69DB0610D40D4B9B699B0710D40B4BF3
:100D00009B691B06F3D5094D6C68094B1C40802379
:100D10005B0223436B60EAE7044B1022DA6130BDCB
:100D2000845C024B9C620132D2B2DDE70054004089
:100D3000FFFF00FF0E4B9B691B0606D40C4B9B6903
:100D4000DB06F7D50A4B1022DA61094B5A680949CC
:100D50000A405A6059688022D2010A435A60044B03
:100D60009B699B06FBD5024B2022DA617047C04687
:100D700000540040FFFF00FE10B5FFF7C3FE10BD9A
:100D800082B04000019000E0C046019B5A1E0192D3
:100D9000002BF9D102B0704710B5182908D01929D5
:100DA0000DD0172909D111001800FFF79BFF04E0AF
:100DB0002423C05C4008FFF77FFF012010BDFFF730
:100DC000B9FFFAE710B52A2908D02B290CD0292918
:100DD00002D11000FFF7D0FF012010BD9000801855
:100DE0004000FFF7CDFFF7E7C046F5E710B5084B29
:100DF000084A0949094C200000F0BCFD200000F021
:100E0000BFFC0021200000F0C2FC200010BDC04645
:100E1000C50D0008990D0008E01E00082C000020F8
:100E200010B582B003681B7C446B5943C90089B27A
:100E300064180094002100F08DFC02B010BDF0B5E4
:100E4000C64600B506003823C75C0133C55C03689D
:100E50005B7C984600242A0021003000FFF7E0FF69
:100E60000134E4B20135EDB2A74201D9A845F2D868
:100E700080BCB846F0BD10B503681A7C3823C35C4B
:100E80005A43D200406B002100F0D1FF10BD10B5D5
:100E90000400FFF7D4FF200000F080FC10BD70B507
:100EA00001683823C35CDA0082870A7CD20042875B
:100EB0003922855CEA00C2875E194C7CA64201DDBE
:100EC000641BA3B2DB009BB24024025302340253E2
:100ED000D21802538A8A4423C252CA8A0233C252A7
:100EE00070BD10B5FFF7DBFF10BD10B582B0040078
:100EF0005223C35A5422825A5021415A5620205A12
:100F00000090200000F06CFD002804D18C2300220A
:100F1000E25402B010BD8C230122E254443BE25A59
:100F20000833E35A9A4201D24822A3524A23E25A92
:100F30000833E35A9A4201D94A22A3524C23E25A77
:100F40000833E35A9A4201D24C22A3524E23E25A6A
:100F50000833E35A9A42DCD94E22A352D9E710B59E
:100F600048230022C252043BC25A0633C2520A3BF3
:100F7000C25A0C33C2520A3BC25A0C33C252FFF758
:100F8000B4FF10BD10B582B004AC2478009400F01A
:100F90005EFD02B010BD10B5002350228352043212
:100FA0008352013B023A835204328352036B5B68E3
:100FB000984710BD70B5040004980025A565E3624C
:100FC00061633823E2540133E5543433E554243368
:100FD000E554043BE5548C3B9222A3540132A354C4
:100FE00020630368200098472000FFF7D4FF20000B
:100FF00000F060FB7023E55470BD0000082303700F
:1010000000487047C0000020405C70474218435CB5
:101010001B025078C01880B270470020704770B52E
:1010200004000D0000212800FFF7EEFF20700121D1
:101030002800FFF7E9FF607002212800FFF7E4FFB6
:10104000A07003212800FFF7DFFFE07004212800D3
:10105000FFF7DAFF207105212800FFF7D5FF607147
:1010600006212800FFF7D0FFA07107212800FFF715
:10107000CBFFE07108212800FFF7C6FF207209218D
:101080002800FFF7C1FF60720A212800FFF7BCFFAC
:10109000A0720B212800FFF7B7FFE0720C21280097
:1010A000FFF7B2FF20730D212800FFF7ADFF60733B
:1010B0000E212800FFF7A8FFA0730F212800FFF7DB
:1010C000A3FFE07310212800FFF79EFF2074112179
:1010D0002800FFF79BFF608213212800FFF796FF8F
:1010E000A08215212800FFF791FFE08270BD70B546
:1010F0000400037B066835781D41E8B25A18D2B265
:10110000072A0AD90820C01AC0B2731C236073785A
:1011100083402B43D8B2083AD2B201235B428B40C2
:101120009843227370BD70B50500040060340166F9
:10113000002323737833C15C2000FFF7D8FFA0722F
:101140007923E95C2000FFF7D2FFE0729223EB5C89
:10115000A3735A425341E37370BD10B50C00FFF7FF
:10116000C6FF013CE4B20123A340C01A40B210BD47
:10117000012B06D0022B07D0002B08D1801880B29B
:101180007047401880B2FBE7801A80B2F8E7401A37
:1011900080B2F5E7012B06D0022B07D0002B08D137
:1011A000401880B27047801A80B2FBE7401A80B2C4
:1011B000F8E7801880B2F5E7F0B5DE4657464E46B0
:1011C0004546E0B589B00792030060331A7A90462D
:1011D0005B7A0393894606001BE04B46059321E0AA
:1011E00033006033997B9223F15453460093059B5F
:1011F0000699300000F037FCA94541D343461C1B3B
:101200004C44E3B29946039B0133DBB203930023C2
:101210009846330060339C7A4346E51AEDB2A945FF
:10122000DBD30595330060339888DA880492414611
:101230004FB26A460C2151568B461B7C9A460A00D7
:101240003900FFF7A7FF069053465A463900049825
:10125000FFF78EFF0200079B002BC1D133006033E4
:101260005B7B002BC8D133006033D97B9223F154D0
:1012700053460093059B0699300000F0F4FBBBE752
:10128000594637004E46320042443B0060331A72E2
:10129000597209B0F0BCBB46B246A946A046F0BDA3
:1012A000F0B5DE4657464E464546E0B587B00400E9
:1012B00005006035FFF737FF6B23E3569A467A2324
:1012C000E15C2800FFF749FF81467B23E15C2800B1
:1012D000FFF743FF06007C23E15C2800FFF73DFF9A
:1012E00003900A23EB569846002B78DD5644F6B25D
:1012F000764277B22B7C9B46A8883A004946FFF796
:1013000049FF05900490A880E8885B463A0049466A
:10131000FFF72EFF0200E8805B46022B67D013D850
:10132000002B21D0012B0DD1059B5146591A89B2B2
:10133000013101339BB24646B6B2801980B289B200
:10134000049119E0059B17E0032B0BD1059B534437
:101350009BB2424692B2821A92B20132013080B2FE
:1013600092B209E0059B07E043469BB205998C4683
:1013700063449BB2504480B200900499200000F076
:101380002FFB00282BD02300603300221A725A72E0
:101390007623E15C2800FFF7AAFE07007723E15CD3
:1013A0002800FFF7A4FE0600002239002000FFF706
:1013B00003FF012231002000FFF7FEFE012128007B
:1013C000FFF795FE0028EFD1230060335B7A5BB214
:1013D0005345DDDB230060339A7B9223E25403986C
:1013E00007B0F0BCBB46B246A946A046F0BD434696
:1013F00099B2059B591A89B2013101339BB2524609
:10140000821A92B20132013080B292B289B2049152
:10141000B2E770B50D00846D1734FF2914D8602928
:1014200003D98823C35AE41806E0402904D9862347
:10143000C35AE41800E0E4186378002B20D0227827
:10144000AA42F8D1A01C1CE08A23C35AE418260043
:1014500000213000FFF7DAFD241802213000FFF7E9
:10146000D5FD04368542F3D801E0A378E41822784C
:1014700012026378134305D09D42F6D1E01C00E0D0
:10148000002070BD0020FCE710B50400642021524C
:101490006621625219002000FFF7BBFF011E04D035
:1014A0002000FFF7FDFE80B210BD0020FCE770B504
:1014B0000400FFF7AEFF011E16D02000FFF733FE39
:1014C000250060357A23E15C2800FFF746FE902373
:1014D000E054153BE15C2800FFF73FFE7C23E15C14
:1014E0002800FFF73AFE70BD0020FCE7F0B5C646C5
:1014F00000B504000D006A230022C25400F052FC23
:1015000040235B4298460027002601E0F619B6B258
:101510006368297820009847144A90420FD001351B
:10152000134A9042F4D001002000FFF7C0FF87B2B9
:1015300043464033EAD19023E3569846E6E76A23D0
:10154000E356002B0ED0F71BBFB29BB2DB199BB248
:101550009022A656B6B2F618B6B24346002B01DD6D
:101560004644B6B2300080BCB846F0BDFFFF000074
:10157000FEFF0000F8B504000D0016001F007023E8
:10158000C35C022B1BD008D8002B0DD0012B0FD130
:10159000C36D98472D1AADB20AE0032B08D1C36D75
:1015A00098472D18ADB203E0C36D98473618B6B210
:1015B0003B00320029002000FFF766FFF8BDC36D35
:1015C0009847361AB6B2F3E7F0B5C64600B5040040
:1015D0000F0016001D0000F0E5FB0023984609E00F
:1015E000032B04D1361AB6B201E03F18BFB2404413
:1015F00083B2984663682978200098470F4988424B
:1016000018D001350E498842F4D003003200390069
:101610002000FFF7AFFF7023E35C022B07D0DFD879
:10162000002BE2D0012BE2D13618B6B2DFE73F1A29
:10163000BFB2DCE7404680BCB846F0BDFFFF00000B
:10164000FEFF000010B5024C4460FFF7BDFF10BD67
:101650008D1D000830B5836D002B1DD08123C2562F
:101660000D33C2540C3BC3568F2143540239415CA5
:10167000002911D0012910D07E2141568024045721
:101680000D19AA4204DAC9B2E2B289188E22815435
:10169000A34201DD8F23C45430BD823141568A42BA
:1016A00001DA8E228154842282569342F4DD8F2304
:1016B000C254F1E7014BC3657047C0461B100008D8
:1016C00010B50400836D8B4206D081657430FFF73E
:1016D000A6FC2000FFF7BEFF10BD000010B5024BB6
:1016E0004360FFF703FF10BD8D1D000801608A7C79
:1016F0002223C254704770B50400456900230022BC
:101700002821A847E5680023002214212000A847CB
:1017100001224B21200000F08EF823681A7929213C
:10172000200000F088F800224B21200000F083F810
:1017300023681A792921200000F07DF801224B212D
:10174000200000F078F823685A792921200000F061
:1017500072F870BD10B582B01C006B4659719A7159
:101760001C71049A0092846801220F21A04702B0E4
:1017700010BD10B58468002300220921A04710BDC8
:1017800010B58468002300220A21A04710BD10B5BF
:101790000A00846800230B21A04710BD10B584689F
:1017A000002300221021A04710BD00207047000038
:1017B00000230360074A8260C26002614261232203
:1017C0008354033283548361FF33023A83540432D7
:1017D00083547047AB170008F8B504000F001600DB
:1017E0001D00FFF7E5FFA760E6602561069B6361CA
:1017F0002000FFF7BEFFF8BD10B5130004690A0012
:101800001721A04710BD00B583B06B46DA1D1170DB
:101810000121FFF7F1FF03B000BD10B504690023FB
:1018200000221821A04710BD10B504690023002232
:101830001921A04710BD10B544690023A04710BD71
:10184000F8B5050014001E000E295BD010D80B2936
:1018500043D00D290AD1002A4BD1324900F0F5F9C5
:101860002B689A7C2223EA54012059E0002057E09B
:101870000F2930D100F0DBF97379DB00DBB22222D3
:10188000AF5CFF18FFB24021280000F0BBF9390916
:1018900010231943C9B2280000F0B4F90F213940D0
:1018A000280000F0B6F9B379502149421943C9B272
:1018B000280000F0AEF931793268C900C9B22800B9
:1018C00000F0AEF9013CE4B2002CF4D1280000F0A5
:1018D000B5F9012024E0002022E0002A04D11249B9
:1018E00000F0B3F901201BE0104900F0AEF901202F
:1018F00016E00F4900F0A9F92B68DA7C2223EA549C
:1019000001200DE000F093F98121280000F07AF920
:101910002100280000F07DF9280000F08FF9012057
:10192000F8BDC046F424000804250008FC24000883
:10193000EC24000870B505000C00FFF781FF0028BB
:1019400012D1092C0AD00A2C0FD12800FFF7D3FEA0
:101950000649280000F079F9012006E00449280032
:10196000FFF7C4FE012000E0012070BD0C25000837
:10197000D424000870B584B004000D000A480B4957
:101980000093130002002000FFF726FF0F266E448D
:101990003000FFF733FB0100054B32780095200043
:1019A000FFF708FB04B070BDB91C0008351900082A
:1019B0003B1B00088A4205D2834209D89A4209D9C2
:1019C000012006E0834207D99A4207D9012000E0AE
:1019D000012070470020FCE70020FAE70020F8E72C
:1019E00070B506000C001D0004AB1B884E21415A47
:1019F0004C20305AFFF7DEFF002807D04A23F15A67
:101A0000023BF05A2B002200FFF7D4FF70BD30B527
:101A100005880C886419A4B2A54203D99D4210D24E
:101A20005C1EA4B29D420ED294420ED9954200D3C0
:101A30002A009C4200D8230002809B1A0B800120C0
:101A400030BD1500EEE70020FAE70020F8E730B5DA
:101A500083B006AC2578C48F121B92B2C46A00957D
:101A6000A04703B030BD70B584B0040008A8057865
:101A70000E206844018003A90A800A226A44138068
:101A80008C23E35C002B30D01388002B2DD0012B4E
:101A900003D9022D2BD0032D30D001231E002E4060
:101AA0002B4233D14B33E25A03AB1B889A421CD8EA
:101AB0004E22A25A934218D24A23E35A4822A25AEB
:101AC0000A2169440E206844FFF7A1FF00280CD0CA
:101AD000236B9D680A236B441B8803AA12880E217E
:101AE0006944098800962000A84704B070BD0288A8
:101AF000D31A9BB2038001330380CEE703A90A887F
:101B0000D31A9BB20B8001330B80C6E74823E25AFD
:101B10003A3B6B441B889A42E7D84A22A25A934226
:101B2000E3D24E23E35A4C22A25A0A21694403A865
:101B3000FFF76DFF0028CBD1D7E7F0B5C64600B55B
:101B4000884606AC2678072717400124BC40E4B23B
:101B50009225415D01291DD9002501291CD00721AD
:101B60008A430168097C4A4392B2416B8C464244E5
:101B700011006144002E19D10A782A43D2B20A70AA
:101B800062400A700131013B9BB2002BF4D180BC52
:101B9000B846F0BD2500E0E70024E0E7012519E0A4
:101BA0006D00EDB26400E4B2002BF0D00A782A4355
:101BB000D2B20A7062400A707A1C072637001740BA
:101BC000013B9BB21642EBD1428F89189222825C74
:101BD000012AE3D9012AE7D00124E5E7F8B504009A
:101BE0000D001600FFF719FE40212000FFF70BFE45
:101BF000276933002A0017212000B8472000FFF78B
:101C000013FEF8BD10B50A00C46800231521A047D3
:101C100010BD10B50A00C46800231621A04710BDEE
:101C200010B51300C4680A001721A04710BD10B5F5
:101C3000C468002300221821A04710BD10B5C46855
:101C4000002300221921A04710BD70B582B0060004
:101C50000C0009E015292DD32A786B46DA71F56856
:101C600000233000A84702342178651C19290FD8B9
:101C7000182918D21629EDD917291BD163786A467D
:101C80000732137001213000FFF7CAFF0234EBE77F
:101C9000FE290FD12A786B46DA7129213000FFF72F
:101CA000CAFD0234E0E7F468002300223000A047B8
:101CB0002C00D9E702B070BDF8B5070014001E0073
:101CC0000D00143DEBB2052B59D89D002D4B5B59EF
:101CD0009F462D4B1B78002B0FD13800FFF79DFD41
:101CE00000213800FFF78FFD21003800FFF78BFD42
:101CF000254B01221A700120F8BDFFF795FDECE796
:101D00001100FFF780FD0120F6E71F4B1B78002B29
:101D10000AD0FFF789FD07E0320018213800FFF7ED
:101D20005DFF183CE4B21836182CF5D832002100BB
:101D30003800FFF753FF144B00221A700120DBE735
:101D40002423C35CFF2B05D03D69330022003800FB
:101D5000A847D1E7DB3B7822C254F5E70A4B0022C3
:101D60001A700120C8E7084B1B78002B04D1064BE2
:101D700000221A700120BFE7FFF756FDF7E70020A9
:101D8000BAE7C04644250008C0040020002903D05B
:101D90000A2903D0080070470148FCE70048FAE729
:101DA000FFFF000026230022C254704713488546D7
:101DB000FEF70EFF12480168090E124A914205D142
:101DC0001148124901601248124901601248134932
:101DD000134A002302E0D458C4500433C4188C4280
:101DE000F9D3104A104C002301E013600432A242E0
:101DF000FBD300F025F8FEF767FAFEE70018002095
:101E0000040000001F000000181002400100000044
:101E10000000014000000000000000200C00002035
:101E2000642500080C000020C4040020FEE7030025
:101E30008218934200D1704719700133F9E700000E
:101E400070B500260C4C0D4D641BA410A64209D1A0
:101E5000002600F019F80A4C0A4D641BA410A64293
:101E600005D170BDB300EB5898470136EEE7B300DB
:101E7000EB5898470136F2E75C2500085C2500081E
:101E8000602500085C250008F8B5C046F8BC08BC11
:101E90009E467047F8B5C046F8BC08BC9E467047E1
:101EA0004D617274696E204772616E6900000000B6
:101EB0000102030405060708090A0B0C0D0E0F109A
:101EC00002030405060708090A0B0C0D0E0F10107B
:101ED00000000000000000000102030406070809DA
:101EE000E30E00085F0F0008850F00085F00030382
:101EF00004050305060E1100FC0CFC0CFD01E604B4
:101F00001805C8200500184B2109C20C4D1C2C696E
:101F100004220A458A51485824A100231BC908D32A
:101F2000498412A14474881C4212A14474881C4242
:101F300012A1442891012414E7FAD2052B07498401
:101F40001223728B502207493106251FCD085D49A7
:101F500083B4A048141449C2A4B8280E0DC943E4A0
:101F6000884818528C11A322002616CA0A59518D8E
:101F700022A1484A9E499A2AB2916C76888D0627FA
:101F800007428A495802280CF4DA4C49264AFA9B3F
:101F90006824290EF4D84C88463291FE2299880094
:101FA0002A0B55784DA5A48C26B1002B0D880AD597
:101FB00089D50E0799580D002C0952DA4850221283
:101FC000002D0724384B1C022E06220A49102F0F21
:101FD000C408CB25896221512C248AA501300FC861
:101FE0000853D12CA3221F4B131B0900310AC50A29
:101FF00053C60E35FD01320FC80853D12CA3225110
:102000003ADCF170103312C80853D12CA3A27446E5
:1020100024174B131B09003413C808530E69129977
:1020200044A48B4C723848C52A003511C80853396E
:1020300089A535536C2C2E4D6C24003612C80853DC
:10204000D12CA3B26474191589A5898D04370FC8E2
:1020500008533C48C552B154AC2A56043813C8083A
:1020600053D12CA3A24424A35946C5D2C446023955
:1020700012C80853D12CA322B134394DC4A5898D7F
:10208000043A08820C4BD021043B0BB2DC4AD0212D
:10209000948804003C0C880A550B49A4E99C4C1612
:1020A0003D0B681A553CC8910E07013E0C880A5535
:1020B00088D9A7234631003F10C70AD5540E329A5B
:1020C000543854954395004022EDEA605A873239DE
:1020D0002414AB906421594CA426528B8994482136
:1020E000519A482687CEE445004116CB0859CE21A7
:1020F000F3B2443A19CA644B52D14172B0D305428B
:1021000014C90A579C0E11619578A01C22C22AF1AD
:102110004039014316CA0AD9154FB389B42E87C86E
:1021200021738854321B1D4B004415CA0A59180FDD
:1021300021E1442A919659AB12E1E4103202450E96
:10214000C80A553C90952F17B1F2E120460DC80AF8
:10215000553C90952F17B1CE004716CA0AD9154F96
:10216000B389B42E87086F14A964363AC42802488C
:102170000CCA0A5988391F1EC67C164907C20A496B
:102180007C184A0CC70AD3EA571AED20A9004B194C
:10219000CB0A594827C2916C261A4AA665AB682813
:1021A0009B0947D28978004C0BC80A5588F5CF8720
:1021B00083004D19CB0A5B4C5D6F87982516A1A84B
:1021C000505448911069441AD162024E15CA0A59F6
:1021D0004C8D468A8C22238948229A842621BA0E65
:1021E0004F14CB0ADB556F4B52C9B44EAF4EA4A26D
:1021F000D9EC5A035010C90A579C0E116195F14051
:1022000039C9B5035117DBFADA556F4B52C9B44ED1
:10221000AF8524A2D28876BD8342005219CA0A59DA
:102220001C420789542295082787D021249C4825E1
:102230005289B43A5311C90A57D52EB3AAD95AAF05
:10224000D626B712005419CA08553C18E51039446F
:102250000E9143E41039440E9143E4102100550DD2
:10226000CA0A5988F9E7E2E41033015618CA085738
:1022700088C912A1482812CA444291502425D3E5A6
:10228000102100571ECE085F088544215145A62421
:1022900022299164925044482292A842B1502C9431
:1022A000015814C90A57486B13998AB03A9E1625EB
:1022B00032955955005918CA0857888B13A14C24D8
:1022C0001449C97439440E9143E41021005A0FC8CF
:1022D0000A553C48A7AAC3A9EAF470105B0BF4DACC
:1022E0004C1C46FA4F87005C0DC4084BC462B234E4
:1022F000599A2C035D0BF4D84C1C42FA4F87015EAF
:102300000D785AD589A53491162151005F0719D847
:10231000521C04600833AC4D8464016111980AD3E7
:10232000942E32E9C83292C824A7C9006211C80AA3
:102330005588B58C2EA32263E930918C00630E98EA
:102340000A53D12CA3B2F268622301640FC80A5564
:102350006BB21C4645C6D2E43411650F980A55D1BC
:102360002CC2C3C13C9AD84800660DC40A4D492608
:10237000924344A42F006713D8CA544D2487519127
:10238000B134394DC4A5898D04680DC80A5588B586
:10239000500E34221F056909C20A49900E07026ACD
:1023A0000B03CBCA284AF42F17006B14C80A5388B2
:1023B000B595269251CD3411892632896C006C076F
:1023C000C20A497C186D169C0A5D482893C32134C3
:1023D000A2C968329A8C26A3C9680A6E0C980A555D
:1023E0004828071A918F026F0E980A55D12CA32204
:1023F00063696223017012D8CA544846975191B15B
:102400007498484662CD007110D8CA544D24875143
:1024100091B134394DC43A720B950A4D480E239947
:10242000DE00730E970AD3540E3263B576905400D3
:10243000740DB40ACD8824878848A79100750B983D
:102440000A5508F9ED40A108760F9808530889123B
:1024500091DE8854B10C0077159C085BC864341574
:1024600091BE506487E0682A128B6400780F970A47
:1024700053C86812A5DAAC2451A3097915D8C852FB
:1024800008891299442493C82432EA54AC3895023E
:102490007A0C9708513CCE86C2D9EC707B0EF4DAE8
:1024A0004C4926225D64229D46027C0701CB483CB4
:1024B000087D0EF4DA4C88467A9388749988007EF9
:1024C0000A383AD5CC446A130000000004FFFF002C
:1024D000000000000001140A6464323200127A0025
:1024E0000004289610080000800040001815A01570
:1024F000C019FF001815A115C819FF001815AE194D
:10250000FF0000001815AF19FF0000001815AE15E8
:10251000D5168015A8163F15D316001540158D1633
:10252000141520160015A115C815DA1612158116F6
:10253000CF15D916F115DB1640152E15A415A619C1
:10254000FF000000401D0008D21C0008001D00080C
:0C2550000A1D00085C1D0008661D000844
:04255C004D02000824
:04256000210200084C
:0C256400010000000400000000127A00DA
:0400000508001DAD25
:00000001FF
